:1000000045C0000053C0000096C000006DC0000055
:100010004DC000004BC0000049C0000047C00000B8
:1000200045C0000043C0000041C000003FC00000C8
:100030003DC000003BC0000039C0000037C00000D8
:1000400035C0000033C0000031C000002FC00000E8
:100050002DC000002BC0000029C0000027C00000F8
:1000600025C0000023C0000021C000001FC0000008
:100070001DC000001BC0000019C0000017C0000018
:1000800015C0000013C0000011C0000011241FBEE5
:10009000CFEFD0E1DEBFCDBF21E0A0E0B1E001C0F5
:1000A0001D92A230B207E1F77ED08FC0A9CF08958C
:1000B00081E090E00090000102C0880F991F0A942F
:1000C000E2F785BB80910001909101010196883093
:1000D00091052CF4909301018093000108951092F2
:1000E00001011092000108951F920F920FB60F9216
:1000F00011240BB60F922F933F934F935F936F93FF
:100100007F938F939F93AF93BF93EF93FF93D0DF32
:10011000FF91EF91BF91AF919F918F917F916F91DF
:100120005F914F913F912F910F900BBE0F900FBE9B
:100130000F901F9018951F920F920FB60F921124D7
:100140000BB60F922F933F934F935F936F937F93D1
:100150008F939F93AF93BF93EF93FF93A9DFFF918B
:10016000EF91BF91AF919F918F917F916F915F912F
:100170004F913F912F910F900BBE0F900FBE0F909C
:100180001F901895181619066CF420E030E0E9EF7E
:10019000F0E03197F1F700C000002F5F3F4F2817C4
:1001A0003907A9F7089583DF80EF81BB8FEF84BB08
:1001B000EAE6F0E080818C63808389B7866089BF3E
:0E01C000789481E090E0DEDFFCCFF894FFCF72
:00000001FF
