:1000000045C0000053C0000051C000004FC00000B8
:100010004DC000004BC0000049C0000047C00000B8
:1000200045C0000043C0000041C000003FC00000C8
:100030003DC000003BC0000039C0000037C00000D8
:1000400035C0000033C0000031C000002FC00000E8
:100050002DC000002BC0000029C0000027C00000F8
:1000600025C0000023C0000021C000001FC0000008
:100070001DC000001BC0000019C0000017C0000018
:1000800015C0000013C0000011C0000011241FBEE5
:10009000CFEFD0E1DEBFCDBF21E0A0E0B1E001C0F5
:1000A0001D92A030B207E1F726D030C0A9CF089545
:1000B000181619066CF420E030E0E9EFF0E0319713
:1000C000F1F700C000002F5F3F4F28173907A9F74D
:1000D000089595B384E0892785BB88EE93E0E8DF37
:1000E00015BA089595B388E0892785BB88EE93E01B
:1000F000DFDF15BA089511BA8FEF84BBD8DF80E037
:1001000090E0F0DF80E090E0E4DFF9CFF894FFCFFB
:00000001FF
