S01400004F7064726163687420422E312E737265631A
S113000045C0000058C0000056C0000054C00000A5
S113001052C0000050C000004EC000004CC00000A0
S11300204AC0000048C0000046C0000044C00000B0
S113003042C0000040C000003EC000003CC00000C0
S11300403AC0000038C0000036C0000034C00000D0
S113005032C0000030C000002EC000002CC00000E0
S11300602AC0000028C0000026C0000024C00000F0
S113007022C0000020C000001EC000001CC0000000
S11300801AC0000018C0000016C0000011241FBED2
S1130090CFEFD0E1DEBFCDBF11E0A0E0B1E0ECEEE8
S11300A0F1E000E00BBF02C007900D92A231B1074E
S11300B0D9F779D099C0A4CF982F907F95BBAB9AEC
S11300C0E9E6F8E13197F1F700C0000094E095BB50
S11300D0F0E18F9FC001112485BBAB9A89E698E1BA
S11300E00197F1F700C0000015BA08958FEF84BBA3
S11300F089E698E10197F1F700C0000082E0DCDFB7
S113010089E698E10197F1F700C0000088E2D4DFA6
S113011089E698E10197F1F700C000008CE0CCDF9C
S113012089E698E10197F1F700C0000086E0C4DF9A
S113013089E698E10197F1F700C0000080E8BCCFA0
S11301400895982F907F95BB95B39C6095BBE9E685
S1130150F8E13197F1F700C0000094E095BBF0E1BD
S11301608F9FC001112485BB85B38C6085BB89E654
S113017098E10197F1F700C0000015BA08950F93B4
S11301801F93CF93DF938C0180E896DFE801005F33
S11301901F4F8991D6DFC017D107D9F7DF91CF91CF
S11301A01F910F910895CF93DF93CDB7DEB7629778
S11301B00FB6F894DEBF0FBECDBF82E1E0E0F1E000
S11301C0DE01119601900D928A95E1F78FDFCE0141
S11301D00196D5DF2FE382E49FE0215080409040D8
S10F01E0E1F700C00000F3CFF894FFCF5B
S11301EC54657374203132333435363720544553C7
S10501FC5400A9
S9030000FC
