S01400004F7064726163687420422E312E737265631A
S113000045C000004BC0000049C0000047C00000CC
S113001045C0000043C0000041C000003FC00000D4
S11300203DC000003BC0000039C0000037C00000E4
S113003035C0000033C0000031C000002FC00000F4
S11300402DC000002BC0000029C0000027C0000004
S113005025C0000023C0000021C000001FC0000014
S11300601DC000001BC0000019C0000017C0000024
S113007015C0000013C0000011C000000FC0000034
S11300800DC000000BC0000009C0000011241FBEF9
S1130090CFEFD0E1DEBFCDBF4ED052C0B1CF089577
S11300A0982F907F95BBAB9AE9EFF0E03197F1F789
S11300B000C0000094E095BBF0E18F9FC0011124C3
S11300C085BBAB9A89EF90E00197F1F700C000007F
S11300D015BA089580E0E4DF82E0E2DF88E2E0DF41
S11300E088E2DEDF88E2DCDF81E0DADF86E0D8DF89
S11300F08FE0D6DF80E8D4CF0895982F907F95BB0A
S113010095B39C6095BBE9EFF0E03197F1F700C03F
S1130110000094E095BBF0E18F9FC001112485BBE2
S113012085B38C6085BB89EF90E00197F1F700C03F
S1130130000015BA0895B3DFCDDF84E6DEDFFFCF1C
S1070140F894FFCF5D
S9030000FC
