S01400004F7064726163687420422E312E737265631A
S113000045C0000058C0000056C0000054C00000A5
S113001052C0000050C000004EC000004CC00000A0
S11300204AC0000048C0000046C0000044C00000B0
S113003042C0000040C000003EC000003CC00000C0
S11300403AC0000038C0000036C0000034C00000D0
S113005032C0000030C000002EC000002CC00000E0
S11300602AC0000028C0000026C0000024C00000F0
S113007022C0000020C000001EC000001CC0000000
S11300801AC0000018C0000016C0000011241FBED2
S1130090CFEFD0E1DEBFCDBF11E0A0E0B1E0E2E7F9
S11300A0F2E000E00BBF02C007900D92A630B1074A
S11300B0D9F7ADD0DCC0A4CF982F907F95BBAB9A75
S11300C0E9E6F8E13197F1F700C0000094E095BB50
S11300D0F0E18F9FC001112485BBAB9A89E698E1BA
S11300E00197F1F700C0000015BA08958FEF84BBA3
S11300F089E698E10197F1F700C0000082E0DCDFB7
S113010089E698E10197F1F700C0000088E2D4DFA6
S113011089E698E10197F1F700C000008CE0CCDF9C
S113012089E698E10197F1F700C0000086E0C4DF9A
S113013089E698E10197F1F700C0000080E8BCDF90
S113014089E698E10197F1F700C0000081E0B4DF8F
S113015089E698E10197F1F700C000000895982F0F
S1130160907F95BB95B39C6095BBE9E6F8E1319728
S1130170F1F700C0000094E095BBF0E18F9FC0014F
S1130180112485BB85B38C6085BB89E698E1019712
S1130190F1F700C0000015BA08956230710519F432
S11301A080548ACF0895805887CF0895EF92FF92A4
S11301B00F931F93CF93DF938C017B014230510542
S11301C081F480EC79DFC701019718161906C4F48D
S11301D0E801080F191F8991C2DFC017D107D9F7A9
S11301E00FC080E869DFC70101971816190644F4A7
S11301F0E801080F191F8991B2DFC017D107D9F799
S1130200DF91CF911F910F91FF90EF900895CF93BD
S1130210DF9300D000D01F92CDB7DEB785E0E0E0D9
S1130220F1E0DE01119601900D928A95E1F75EDF0F
S113023089E698E10197F1F700C0000081E03CDF16
S113024041E050E065E070E0CE010196AFDF62E08E
S113025070E08AE0A2DF81E482DF9FE322E48FE0A2
S1130260915020408040E1F700C00000E7CFF894AF
S1050270FFCFBA
S1090272546573740000E2
S9030000FC
