S01400004F7064726163687420422E332E7372656318
S113000045C000004BC0000049C0000047C00000CC
S113001045C0000043C0000041C000003FC00000D4
S11300203DC000003BC0000039C0000037C00000E4
S113003035C0000033C0000031C000002FC00000F4
S11300402DC000002BC0000029C0000027C0000004
S113005025C0000023C0000021C000001FC0000014
S11300601DC000001BC0000019C0000017C0000024
S113007015C0000013C0000011C000000FC0000034
S11300800DC000000BC0000009C0000011241FBEF9
S1130090CFEFD0E1DEBFCDBF56D088C0B1CF1816A8
S11300A019066CF420E030E0E9EFF0E03197F1F765
S11300B000C000002F5F3F4F28173907A9F70895A4
S11300C08FEF87BBBB98C09A82E58DB908958FB92D
S11300D0779BFECF089598B321E030E002C0220F51
S11300E0331F8A95E2F72095292328BB089598B3F6
S11300F021E030E002C0220F331F8A95E2F7292B5A
S113010028BB089580E0E7DF89E0E1DF8FEFDFDFE0
S113011080E0EDDF80E0DFDF8AE0D9DF84E0D7DF55
S113012080E0E5DF80E0D7DF8BE0D1DF81E0CFDF67
S113013080E0DDDF80E0CFDF8CE0C9DF81E0C7DF76
S113014080E0D5CF089581E087BBBADFDBDF80E0B4
S1130150C2DF81E0BCDF80E0BADF80E0C8DF80E09E
S1130160BADF82E0B4DF80E0B2DF80E0C0DF88EE97
S113017093E095DF80E0AFDF81E0A9DF81E0A7DFD6
S113018080E0B5DF88EE93E08ADF80E0A4DF82E0E0
S11301909EDF82E09CDF80E0AADF88EE93E07FDFD1
S11301A088EE93E07CDF81E090E00895F894FFCF3F
S9030000FC
