S01400004F7064726163687420422E332E7372656318
S113000045C000004BC0000049C0000047C00000CC
S113001045C0000043C0000041C000003FC00000D4
S11300203DC000003BC0000039C0000037C00000E4
S113003035C0000033C0000031C000002FC00000F4
S11300402DC000002BC0000029C0000027C0000004
S113005025C0000023C0000021C000001FC0000014
S11300601DC000001BC0000019C0000017C0000024
S113007015C0000013C0000011C000000FC0000034
S11300800DC000000BC0000009C0000011241FBEF9
S1130090CFEFD0E1DEBFCDBFAED0DEC0B1CF8FEFAA
S11300A087BBBB98C09A82E58DB908958FB9779BB9
S11300B0FECF089598B321E030E002C0220F331F31
S11300C08A95E2F72095292328BB089598B321E067
S11300D030E002C0220F331F8A95E2F7292B28BB98
S11300E0089580E0E7DF89E0E1DF8FEFDFDF80E084
S11300F0EDDF80E0DFDF8AE0D9DF8FE0D7DF80E06B
S1130100E5DF80E0D7DF8BE0D1DF83E0CFDF80E085
S1130110DDDF80E0CFDF8CE0C9DF81E0C7DF80E096
S1130120D5CF0895CF93DF93D82FC62F80E0C2DFB9
S11301308D2FBCDF8C2FBADF80E0C8DFDF91CF9139
S113014008950F931F93CF93DF93EC0189519C4F34
S1130150873E934040F4DD231CF4D195C195D10929
S11301606AE284E0DFDFC03187E2D8070CF03EC0EA
S1130170C83E23E0D20769F461E084E0D3DF60E0A5
S113018083E0D0DF60E082E0CDDF60E081E0CADFC1
S113019004C0C83E83E0D80754F0CE0168EE73E093
S11301A034D0082F192F84E0BDDFC02FD12FC436DF
S11301B0D10554F0CE0164E670E027D0082F192F42
S11301C083E0B0DFC02FD12FCA30D10554F0CE0167
S11301D06AE070E01AD0082F192F82E0A3DFC02F45
S11301E0D12FDD231CF06C2F81E09CDFDF91CF91B8
S11301F01F910F91089581E087BB51DF72DF88EE74
S113020093E09FDF81E090E0089597FB072E16F4BA
S1130210009406D077FD08D00BD007FC05D03EF43F
S1130220909581959F4F0895709561957F4F08959E
S1130230AA1BBB1B51E107C0AA1FBB1FA617B70708
S113024010F0A61BB70B881F991F5A95A9F7809524
S10F02509095BC01CD010895F894FFCFF7
S9030000FC
