S01400004F7064726163687420422E322E7372656319
S113000045C0000053C0000051C000004FC00000B4
S11300104DC000004BC0000049C0000047C00000B4
S113002045C0000043C0000041C000003FC00000C4
S11300303DC000003BC0000039C0000037C00000D4
S113004035C0000033C0000031C000002FC00000E4
S11300502DC000002BC0000029C0000027C00000F4
S113006025C0000023C0000021C000001FC0000004
S11300701DC000001BC0000019C0000017C0000014
S113008015C0000013C0000011C0000011241FBEE1
S1130090CFEFD0E1DEBFCDBF21E0A0E0B1E001C0F1
S11300A01D92A030B207E1F731D061C0A9CF181674
S11300B019066CF420E030E0E9EFF0E03197F1F755
S11300C000C000002F5F3F4F28173907A9F7089594
S11300D01BBC1ABC19BC18BC109279001092780091
S11300E089EA8FBD8BE08EBD0895CF93DF93C82F2F
S11300F0D0E0DBBDCABD88EE93E0D9DFD9BDC8BD71
S113010088EE93E0D4DFDF91CF9108958FEF87BB22
S1130110DFDF84E690E0CBDFC12CD12CEE24E39426
S1130120F12CAA24AA94B12C80E0DFDF0C2D1D2D24
S1130130CE2DDF2D802FD9DF229684E690E0B7DF25
S11301400C0F1D1F0F3F1105A9F3A4F30A2D1B2D3E
S1130150802FCBDF229784E690E0A9DF0C1B1D0BD8
S1130160BAF780E0C2DF84E690E0A1DFDDCFF89447
S1050170FFCFBB
S9030000FC
