:1000000045C0000060C00000C8C000009FC00000E4
:100010005AC0000058C0000056C0000054C0000084
:1000200052C0000050C000004EC000004CC0000094
:100030004AC0000048C0000046C0000044C00000A4
:1000400042C0000040C000003EC000003CC00000B4
:100050003AC0000038C0000036C0000034C00000C4
:1000600032C0000030C000002EC000002CC00000D4
:100070002AC0000028C0000026C0000024C00000E4
:1000800022C0000020C000001EC0000011241FBEBE
:10009000CFEFD0E1DEBFCDBF11E0A0E0B1E0E8E1FD
:1000A000F2E000E00BBF02C007900D92A031B10753
:1000B000D9F721E0A0E1B1E001C01D92A231B20761
:1000C000E1F792D0A7C09CCF0895181619066CF4DA
:1000D00020E030E0E9EFF0E03197F1F700C00000F8
:1000E0002F5F3F4F28173907A9F708958091100116
:1000F000909111018F3091052CF40196909311018C
:1001000080931001E0911001F0911101E050FF4F38
:10011000808185BB8AEF90E0D8CF0895809110014F
:1001200090911101181619062CF401979093110162
:1001300080931001E0911001F0911101E050FF4F08
:10014000808185BB8AEF90E0C0CF08951F920F9207
:100150000FB60F9211240BB60F922F933F934F932C
:100160005F936F937F938F939F93AF93BF93EF931F
:10017000FF93D4DFFF91EF91BF91AF919F918F914A
:100180007F916F915F914F913F912F910F900BBE97
:100190000F900FBE0F901F9018951F920F920FB6E1
:1001A0000F9211240BB60F922F933F934F935F93AF
:1001B0006F937F938F939F93AF93BF93EF93FF932F
:1001C00095DFFF91EF91BF91AF919F918F917F91BB
:1001D0006F915F914F913F912F910F900BBE0F90B8
:1001E0000FBE0F901F90189580EF81BB8FEF84BBDF
:1001F000EAE6F0E080818C63808389B7866089BFFE
:10020000789462DF10921101109210018091000128
:0802100085BBFFCFF894FFCF7E
:100218003F065B4F666D7D077F6F777C395E79712E
:00000001FF
