:1000000045C0000060C000005EC000005CC0000091
:100010005AC0000058C0000056C0000054C0000084
:1000200052C0000050C000004EC000004CC0000094
:100030004AC0000048C0000046C0000044C00000A4
:1000400042C0000040C000003EC000003CC00000B4
:100050003AC0000038C0000036C0000034C00000C4
:1000600032C0000030C000002EC000002CC00000D4
:100070002AC0000028C0000026C0000024C00000E4
:1000800022C0000020C000001EC0000011241FBEBE
:10009000CFEFD0E1DEBFCDBF11E0A0E0B1E0EAE5F7
:1000A000F6E000E00BBF02C007900D92AC32B10742
:1000B000D9F721E0ACE2B1E001C01D92A03BB2074C
:1000C000E1F7D1D1C8C29CCF982F907F95BBAB9A56
:1000D000E9E6F8E13197F1F700C0000094E095BB44
:1000E000F0E18F9FC001112485BBAB9A89E698E1AE
:1000F0000197F1F700C0000015BA08958FEF84BB97
:1001000089E698E10197F1F700C0000082E0DCDFAA
:1001100089E698E10197F1F700C0000088E2D4DF9A
:1001200089E698E10197F1F700C000008CE0CCDF90
:1001300089E698E10197F1F700C0000086E0C4DF8E
:1001400089E698E10197F1F700C0000080E8BCDF84
:1001500089E698E10197F1F700C0000081E0B4DF83
:1001600089E698E10197F1F700C000000895982F03
:10017000907F95BB95B39C6095BBE9E6F8E131971C
:10018000F1F700C0000094E095BBF0E18F9FC00143
:10019000112485BB85B38C6085BB89E698E1019706
:1001A000F1F700C0000015BA0895EF92FF920F9387
:1001B0001F93CF93DF93EC0162307105B9F480ECAB
:1001C00083DF7E0100E010E006C0F70181917F012E
:1001D000CEDF0F5F1F4FFE0101900020E9F731973E
:1001E000EC1BFD0B0E171F0780F316C080E86CDFB9
:1001F0007E0100E010E006C0F70181917F01B7DFCA
:100200000F5F1F4FFE0101900020E9F73197EC1BB3
:10021000FD0B0E171F0780F3DF91CF911F910F91F8
:10022000FF90EF90089517BA14BA089581309105A0
:1002300051F01CF4892B29F108958230910559F071
:100240000397B9F0089580913201882349F18250D3
:1002500080933201089580913301803420F4880F17
:100260008093330108958038D9F481E0809333017D
:100270000895809132018E3098F48E5F8093320120
:10028000089580913301813021F480E88093330117
:100290000895823028F0803819F0869580933301D4
:1002A000089580912C0190912D010196813127E2D2
:1002B000920728F490932D0180932C0104C0109292
:1002C0002D0110922C01B09B07C081E090E090932B
:1002D00005018093040118C0B19B07C082E090E043
:1002E00090930501809304010FC0B29B07C083E087
:1002F00090E0909305018093040106C0999B04C08F
:100300001092050110920401809104019091050161
:100310008DCF08951092710080E28093700008954F
:1003200084EA80937400E4E7F0E080818823ECF7AE
:1003300008958093730084E880937400E4E7F0E00C
:1003400080818823ECF708950F931F93CF93DF9359
:10035000C0E004E710E0D4E9E3DF80EEEADF8C2FB1
:10036000E8DF80E0E6DFF801D083CE5FC031A1F79F
:10037000DF91CF911F910F910895CF93DF93D82FE5
:10038000C92FCEDF80EED5DF8D2FD3DFE0E3F1E0A4
:1003900090818281981303C0C3818181C80F8C2F03
:1003A000C8DF84E980937400DF91CF910895181617
:1003B00019066CF420E030E0E9EFF0E03197F1F756
:1003C00000C000002F5F3F4F28173907A9F7089595
:1003D00080912C0190912D01D6D0D2D08770907849
:1003E000992324F40197886F9F6F0196880F991FB6
:1003F000FC01E45FFE4F808180933001C1D08770A3
:100400009078992324F40197886F9F6F0196880F45
:10041000991FFC01E45EFE4F8081809331010895B5
:10042000E0E3F1E09281808198131CC09381818187
:10043000981318C0CDDF80912E0190912F01019665
:1004400090932F0180932E0180E03EDE61E070E00A
:1004500086E091E0AADE62E070E080912E0190914A
:100460002F01A3CE08954ADE89E190E0A0DF52DF9C
:10047000DADE56DF80EE5DDF81E25BDFC4E7D0E0ED
:1004800014E918834DDF80EE54DF80EA52DF1883D1
:1004900047DF80EE4EDF83EE4CDF188341DF80EED6
:1004A00048DF81E846DF18834FDFE0E3F1E088E0D2
:1004B000828383838281938160DF8ADF61E070E0E1
:1004C00086E091E072DE62E070E080912E01909112
:1004D0002F016BDEC0E3D1E0E4DEA2DF35DF8881EF
:1004E00099814BDF8A819B8148DF88EE93E05FDF53
:1004F000F3CF8F929F92AF92BF92CF92DF92EF9203
:10050000FF92CF93DF93EC01688179818A819B818F
:10051000611571058105910521F464E279ED8BE5A2
:1005200097E02DE133EF41E050E038D049015A0126
:100530009B01AC01A7EAB1E44DD06B017C01ACEEAC
:10054000B4EFA501940152D0DC01CB018C0D9D1DAF
:10055000AE1DBF1DB7FF03C00197A109B048888336
:100560009983AA83BB839F77DF91CF91FF90EF9010
:10057000DF90CF90BF90AF909F908F900895B9CFAC
:1005800080E091E0B6CFA0E0B0E0809300019093CE
:100590000101A0930201B09303010895052E97FB7A
:1005A00016F400940FD057FD05D024D007FC02D0DC
:1005B00046F408C050954095309521953F4F4F4FD8
:1005C0005F4F089590958095709561957F4F8F4FFF
:1005D0009F4F089531D0A59F900DB49F900DA49F7B
:1005E000800D911D11240895B7FFF4CFF3DF821B16
:1005F000930B0895A1E21A2EAA1BBB1BFD010DC08F
:10060000AA1FBB1FEE1FFF1FA217B307E407F507C2
:1006100020F0A21BB30BE40BF50B661F771F881F9E
:10062000991F1A9469F760957095809590959B0134
:10063000AC01BD01CF010895A29FB001B39FC001DD
:10064000A39F700D811D1124911DB29F700D811DFE
:0A0650001124911D0895F894FFCFC6
:10065A0001000000FFFF53636F72653A0000020059
:10066A000400060008000A000C000E00800040008A
:0C067A0020001000080004000200010035
:00000001FF
