:1000000045C0000060C000005EC000005CC0000091
:100010005AC0000058C0000056C0000054C0000084
:1000200052C0000050C000004EC000004CC0000094
:100030004AC0000048C0000046C0000044C00000A4
:1000400042C0000040C000003EC000003CC00000B4
:100050003AC0000038C0000036C0000034C00000C4
:1000600032C0000030C000002EC000002CC00000D4
:100070002AC0000028C0000026C0000024C00000E4
:1000800022C0000020C000001EC0000011241FBEBE
:10009000CFEFD0E1DEBFCDBF11E0A0E0B1E0EAEAF2
:1000A000F4E000E00BBF02C007900D92A632B1074A
:1000B000D9F721E0A6E2B1E001C01D92AC32B2074F
:1000C000E1F706D1F0C19CCF17BA14BA0895813078
:1000D000910551F01CF4892B29F108958230910586
:1000E00059F00397B9F0089580912A01882349F1C6
:1000F000825080932A01089580912B01803420F44E
:10010000880F80932B0108958038D9F481E0809383
:100110002B01089580912A018E3098F48E5F809390
:100120002A01089580912B01813021F480E8809389
:100130002B010895823028F0803819F0869580933D
:100140002B0108958091260190912701019681311C
:1001500027E2920728F4909327018093260104C098
:100160001092270110922601B09B07C081E090E019
:10017000909305018093040118C0B19B07C082E0F1
:1001800090E090930501809304010FC0B29B07C0DB
:1001900083E090E0909305018093040106C0999B51
:1001A00004C0109205011092040180910401909105
:1001B00005018DCF08951092710080E28093700048
:1001C000089584EA80937400E4E7F0E08081882356
:1001D000ECF708958093730084E880937400E4E75B
:1001E000F0E080818823ECF708950F931F93CF935D
:1001F000DF93C0E004E710E0D4E9E3DF80EEEADF5C
:100200008C2FE8DF80E0E6DFF801D083CE5FC031DD
:10021000A1F7DF91CF911F910F910895181619063C
:100220006CF420E030E0E9EFF0E03197F1F700C046
:1002300000002F5F3F4F28173907A9F708958091D5
:10024000260190912701C7D0C3D087709078992359
:1002500024F40197886F9F6F0196880F991FFC0106
:10026000EA5FFE4F808180932801B2D0877090783A
:10027000992324F40197886F9F6F0196880F991F27
:10028000FC01EA5EFE4F8081809329010895CF939F
:10029000DF93D82FC92F95DF80EE9CDF8D2F9ADF5B
:1002A0009091280180912A0198130AC08091290118
:1002B00090912B01891302C0C2DF02C0C92FC80F61
:1002C0008C2F88DF84E980937400DF91CF910895AB
:1002D00072DFFADE76DF80EE7DDF81E27BDFC4E76E
:1002E000D0E014E918836DDF80EE74DF80EA72DFFE
:1002F000188367DF80EE6EDF83EE6CDF188361DFCB
:1003000080EE68DF81E866DF18836FDFEAE2F1E004
:1003100088E08083818380912A0190912B01B7DF4F
:100320008EDF10DF62DF8091280190912901AFDF1D
:1003300080912A0190912B01AADF88EE93E06EDF75
:10034000F0CF8F929F92AF92BF92CF92DF92EF92B7
:10035000FF92CF93DF93EC01688179818A819B8141
:10036000611571058105910521F464E279ED8BE554
:1003700097E02DE133EF41E050E038D049015A01D8
:100380009B01AC01A7EAB1E44DD06B017C01ACEE5E
:10039000B4EFA501940152D0DC01CB018C0D9D1D61
:1003A000AE1DBF1DB7FF03C00197A109B0488883E8
:1003B0009983AA83BB839F77DF91CF91FF90EF90C2
:1003C000DF90CF90BF90AF909F908F900895B9CF5E
:1003D00080E091E0B6CFA0E0B0E080930001909380
:1003E0000101A0930201B09303010895052E97FB2C
:1003F00016F400940FD057FD05D024D007FC02D08E
:1004000046F408C050954095309521953F4F4F4F89
:100410005F4F089590958095709561957F4F8F4FB0
:100420009F4F089531D0A59F900DB49F900DA49F2C
:10043000800D911D11240895B7FFF4CFF3DF821BC7
:10044000930B0895A1E21A2EAA1BBB1BFD010DC040
:10045000AA1FBB1FEE1FFF1FA217B307E407F50774
:1004600020F0A21BB30BE40BF50B661F771F881F50
:10047000991F1A9469F760957095809590959B01E6
:10048000AC01BD01CF010895A29FB001B39FC0018F
:10049000A39F700D811D1124911DB29F700D811DB0
:0A04A0001124911D0895F894FFCF78
:1004AA0001000000FFFF000002000400060008002F
:1004BA000A000C000E008000400020001000080016
:0604CA0004000200010025
:00000001FF
