:1000000045C0000060C000005EC000005CC0000091
:100010005AC0000058C0000056C0000054C0000084
:1000200052C0000050C000004EC000004CC0000094
:100030004AC0000048C0000046C0000044C00000A4
:1000400042C0000040C000003EC000003CC00000B4
:100050003AC0000038C0000036C0000034C00000C4
:1000600032C0000030C000002EC000002CC00000D4
:100070002AC0000028C0000026C0000024C00000E4
:1000800022C0000020C000001EC0000011241FBEBE
:10009000CFEFD0E1DEBFCDBF11E0A0E0B1E0E0E501
:1000A000F9E000E00BBF02C007900D92A636B10741
:1000B000D9F721E0A6E6B1E001C01D92AB3FB2073F
:1000C000E1F7D2D243C49CCF982F907F95BBAB9AD7
:1000D000E9E6F8E13197F1F700C0000094E095BB44
:1000E000F0E18F9FC001112485BBAB9A89E698E1AE
:1000F0000197F1F700C0000015BA08958FEF84BB97
:1001000089E698E10197F1F700C0000082E0DCDFAA
:1001100089E698E10197F1F700C0000088E2D4DF9A
:1001200089E698E10197F1F700C000008CE0CCDF90
:1001300089E698E10197F1F700C0000086E0C4DF8E
:1001400089E698E10197F1F700C0000080E8BCDF84
:1001500089E698E10197F1F700C0000081E0B4DF83
:1001600089E698E10197F1F700C000000895982F03
:10017000907F95BB95B39C6095BBE9E6F8E131971C
:10018000F1F700C0000094E095BBF0E18F9FC00143
:10019000112485BB85B38C6085BB89E698E1019706
:1001A000F1F700C0000015BA0895EF92FF920F9387
:1001B0001F93CF93DF93EC0162307105B9F480ECAB
:1001C00083DF7E0100E010E006C0F70181917F012E
:1001D000CEDF0F5F1F4FFE0101900020E9F731973E
:1001E000EC1BFD0B0E171F0780F316C080E86CDFB9
:1001F0007E0100E010E006C0F70181917F01B7DFCA
:100200000F5F1F4FFE0101900020E9F73197EC1BB3
:10021000FD0B0E171F0780F3DF91CF911F910F91F8
:10022000FF90EF9008951092710080E2809370002B
:10023000089584EA80937400E4E7F0E080818823E5
:10024000ECF708958093730084E880937400E4E7EA
:10025000F0E080818823ECF708950F931F93CF93EC
:10026000DF93C0E004E710E0D4E9E3DF80EEEADFEB
:100270008C2FE8DF80E0E6DFF801D083CE5FC0316D
:10028000A1F7DF91CF911F910F9108951F93CF9305
:10029000DF9389E190E008D1C6DF6CD0CADF80EE41
:1002A000D1DF81E2CFDFC4E7D0E014E91883C1DFFA
:1002B00080EEC8DF80EAC6DF1883BBDF80EEC2DFD6
:1002C00083EEC0DF1883B5DF80EEBCDF81E8BADFE4
:1002D0001883C3DFDF91CF911F9108950F931F9370
:1002E000CF93DF93C0E004E710E0D4E9A2DF80EE13
:1002F000A9DF8C2FA7DF8FEFA5DFF801D083CE5FBA
:10030000C031A1F7DF91CF911F910F9108950F9305
:100310001F93CF93DF93082FD92FC82F192F89DF71
:1003200080EE90DF802F8EDF6D2F70E040912601F0
:10033000509127015523A4F0ECE6F1E020E030E0F5
:10034000DF0111979C919C1305C09081911711F0CA
:10035000690F711D2F5F3F4F32964217530784F785
:10036000862F70DF84E980937400DF91CF911F9115
:100370000F91089517BA14BA08958091660190916B
:1003800067010196813127E2920728F49093670173
:100390008093660104C01092670110926601C89BA9
:1003A00007C081E090E09093250180932401089597
:1003B000C99B07C082E090E09093250180932401BF
:1003C0000895CA9B07C083E090E090932501809335
:1003D00024010895B19B05C01092250110922401BB
:1003E0000895B09B07C080916A01813019F081E0C7
:1003F00080936A0108958130910581F0DC01AA0F94
:10040000BB1FA759BE4F2C91880F991FFC01E559BE
:10041000FE4F208311968C91818308956130710580
:1004200059F01CF4672B31F108956230710561F0C9
:1004300063307105B9F0089580916D01882349F109
:10044000825080936D01089580916E01803420F474
:10045000880F80936E0108958038D9F481E08093ED
:100460006E01089580916D018E3098F48E5F8093B7
:100470006D01089580916E01813021F480E88093B0
:100480006E010895823028F0803819F086958093A7
:100490006E01089580912601909127010196909315
:1004A0002701809326010895181619066CF420E0A0
:1004B00030E0E9EFF0E03197F1F700C000002F5F86
:1004C0003F4F28173907A9F70895AF92BF92CF92EF
:1004D000DF92EF92FF920F931F93CF93DF93809160
:1004E000660190916701D9D1CBE6D1E00EE611E02B
:1004F000CC24C394D12CE12CF12CCCD187709078F2
:10050000992324F40197886F9F6F0196880F991F94
:10051000FC01EC5FFE4F80818883BCD187709078AE
:10052000992324F40197886F9F6F0196880F991F74
:10053000FC01EC5EFE4F8081898360912601709101
:10054000270116161706CCF4B880A82EF8018C2DBA
:100550009D2D4C2D5D2D3081DF0111972C912B119C
:1005600004C0A31202C04E2D5F2D0196329668176B
:1005700079078CF7452B09F4C0CFDF91CF911F91FC
:100580000F91FF90EF90DF90CF90BF90AF900895C4
:100590009F92AF92BF92CF92DF92EF92FF920F9312
:1005A0001F93CF93DF93EBE6F1E08381918130815C
:1005B0002281321333C0981331C024C04081388166
:1005C000DF0111972C91321305C0B41203C03BC058
:1005D00050936A0101963296681779077CF70F5F8E
:1005E0001F4F82E0E80EF11C601771078CF11616A0
:1005F0001706ACF7F701B080F601892D9A2DE701B7
:100600002197DCCF47DF61DF80916801909169011C
:10061000019690936901809368011AC06091260148
:1006200070912701161617069CF40F2EFEE6EF2E8A
:10063000F1E0FF2EF02D01E010E067019924939482
:10064000A12C52E0D4CF0817190709F0C1CFC2CFAF
:10065000DF91CF911F910F91FF90EF90DF90CF909E
:10066000BF90AF909F90089511DE48DDEBE6F1E07A
:1006700088E08283838329DF60E070E088E291E094
:1006800094DD62E070E084E391E08FDD0F2EF4E111
:100690008F2EF02D912CCC24C394D12CEE24EA94EF
:1006A000FE2C0BE611E06894BB24B3F80F2EF5E0A6
:1006B000AF2EF02D712C80916A01813051F020F025
:1006C000823009F43DC0F9CF58DE8AEF90E0ECDECD
:1006D000F2CF60E070E085E491E067DDC091260133
:1006E000D09127011C161D0644F4609124017091DD
:1006F0002501CE0180DE2197C1F74ADFAEDD809172
:1007000026019091270199230CF46BC0C0E0D0E042
:10071000FE01EE0FFF1FE559FE4F80819181F7DD4D
:10072000219680912601909127018C179D0784F7CF
:1007300058C023DE84E690E0B7DE2197D1F7BBCF27
:1007400060E070E086E591E030DD20916801309155
:100750006901ADECBCEC48D0969587959695879548
:1007600096958795805D03DD409168015091690100
:100770009A01ADECBCEC38D0969587959695879507
:10078000969587959C01220F331F880F991F880F1C
:10079000991F880F991F820F931F9A01281B390BED
:1007A000C901805DE4DCD0922701C0922601F0925D
:1007B0002501E0922401F801B382B282109269010E
:1007C00010926801CA2DD72D89DD88EE93E06CDE8A
:1007D00044DD88EE93E068DE2197B1F710926A015C
:1007E0006ACFC82DD92DA5CFA29FB001B39FC0015C
:1007F000A39F700D811D1124911DB29F700D811D4D
:100800001124911D08958F929F92AF92BF92CF9223
:10081000DF92EF92FF92CF93DF93EC0168817981B1
:100820008A819B81611571058105910521F464E23E
:1008300079ED8BE597E02DE133EF41E050E038D0E2
:1008400049015A019B01AC01A7EAB1E44DD06B010B
:100850007C01ACEEB4EFA501940152D0DC01CB01D8
:100860008C0D9D1DAE1DBF1DB7FF03C00197A109D3
:10087000B04888839983AA83BB839F77DF91CF9108
:10088000FF90EF90DF90CF90BF90AF909F908F90B0
:100890000895B9CF80E091E0B6CFA0E0B0E08093BA
:1008A000000190930101A0930201B0930301089508
:1008B000052E97FB16F400940FD057FD05D024D0D9
:1008C00007FC02D046F408C050954095309521951C
:1008D0003F4F4F4F5F4F089590958095709561956C
:1008E0007F4F8F4F9F4F08957FDFA59F900DB49F3F
:1008F000900DA49F800D911D11240895B7FFF4CF92
:10090000F3DF821B930B0895A1E21A2EAA1BBB1BD7
:10091000FD010DC0AA1FBB1FEE1FFF1FA217B307CB
:10092000E407F50720F0A21BB30BE40BF50B661FE1
:10093000771F881F991F1A9469F7609570958095A5
:1009400090959B01AC01BD01CF010895F894FFCFB4
:1009500001000000000002000400060008000A0078
:100960000C000E0080004000200010000800040071
:1009700002000100FFFF0100623020746F207374D9
:10098000617274006374726C3A41302C41312C41B5
:10099000322C423100696E2067616D652020202075
:1009A00020202020200047414D45204F5645522110
:0609B0002020733A000054
:00000001FF
